{
  "_format": "hh-sol-artifact-1",
  "contractName": "Collection",
  "sourceName": "contracts/FourCollection.sol",
  "abi": [
    {
      "inputs": [
        {
          "internalType": "address",
          "name": "initialOwner",
          "type": "address"
        }
      ],
      "stateMutability": "nonpayable",
      "type": "constructor"
    },
    {
      "inputs": [
        {
          "internalType": "address",
          "name": "sender",
          "type": "address"
        },
        {
          "internalType": "uint256",
          "name": "tokenId",
          "type": "uint256"
        },
        {
          "internalType": "address",
          "name": "owner",
          "type": "address"
        }
      ],
      "name": "ERC721IncorrectOwner",
      "type": "error"
    },
    {
      "inputs": [
        {
          "internalType": "address",
          "name": "operator",
          "type": "address"
        },
        {
          "internalType": "uint256",
          "name": "tokenId",
          "type": "uint256"
        }
      ],
      "name": "ERC721InsufficientApproval",
      "type": "error"
    },
    {
      "inputs": [
        {
          "internalType": "address",
          "name": "approver",
          "type": "address"
        }
      ],
      "name": "ERC721InvalidApprover",
      "type": "error"
    },
    {
      "inputs": [
        {
          "internalType": "address",
          "name": "operator",
          "type": "address"
        }
      ],
      "name": "ERC721InvalidOperator",
      "type": "error"
    },
    {
      "inputs": [
        {
          "internalType": "address",
          "name": "owner",
          "type": "address"
        }
      ],
      "name": "ERC721InvalidOwner",
      "type": "error"
    },
    {
      "inputs": [
        {
          "internalType": "address",
          "name": "receiver",
          "type": "address"
        }
      ],
      "name": "ERC721InvalidReceiver",
      "type": "error"
    },
    {
      "inputs": [
        {
          "internalType": "address",
          "name": "sender",
          "type": "address"
        }
      ],
      "name": "ERC721InvalidSender",
      "type": "error"
    },
    {
      "inputs": [
        {
          "internalType": "uint256",
          "name": "tokenId",
          "type": "uint256"
        }
      ],
      "name": "ERC721NonexistentToken",
      "type": "error"
    },
    {
      "inputs": [
        {
          "internalType": "address",
          "name": "owner",
          "type": "address"
        }
      ],
      "name": "OwnableInvalidOwner",
      "type": "error"
    },
    {
      "inputs": [
        {
          "internalType": "address",
          "name": "account",
          "type": "address"
        }
      ],
      "name": "OwnableUnauthorizedAccount",
      "type": "error"
    },
    {
      "anonymous": false,
      "inputs": [
        {
          "indexed": true,
          "internalType": "address",
          "name": "owner",
          "type": "address"
        },
        {
          "indexed": true,
          "internalType": "address",
          "name": "approved",
          "type": "address"
        },
        {
          "indexed": true,
          "internalType": "uint256",
          "name": "tokenId",
          "type": "uint256"
        }
      ],
      "name": "Approval",
      "type": "event"
    },
    {
      "anonymous": false,
      "inputs": [
        {
          "indexed": true,
          "internalType": "address",
          "name": "owner",
          "type": "address"
        },
        {
          "indexed": true,
          "internalType": "address",
          "name": "operator",
          "type": "address"
        },
        {
          "indexed": false,
          "internalType": "bool",
          "name": "approved",
          "type": "bool"
        }
      ],
      "name": "ApprovalForAll",
      "type": "event"
    },
    {
      "anonymous": false,
      "inputs": [
        {
          "indexed": true,
          "internalType": "address",
          "name": "previousOwner",
          "type": "address"
        },
        {
          "indexed": true,
          "internalType": "address",
          "name": "newOwner",
          "type": "address"
        }
      ],
      "name": "OwnershipTransferred",
      "type": "event"
    },
    {
      "anonymous": false,
      "inputs": [
        {
          "indexed": true,
          "internalType": "address",
          "name": "from",
          "type": "address"
        },
        {
          "indexed": true,
          "internalType": "address",
          "name": "to",
          "type": "address"
        },
        {
          "indexed": true,
          "internalType": "uint256",
          "name": "tokenId",
          "type": "uint256"
        }
      ],
      "name": "Transfer",
      "type": "event"
    },
    {
      "inputs": [
        {
          "internalType": "address",
          "name": "to",
          "type": "address"
        },
        {
          "internalType": "uint256",
          "name": "tokenId",
          "type": "uint256"
        }
      ],
      "name": "approve",
      "outputs": [],
      "stateMutability": "nonpayable",
      "type": "function"
    },
    {
      "inputs": [
        {
          "internalType": "address",
          "name": "owner",
          "type": "address"
        }
      ],
      "name": "balanceOf",
      "outputs": [
        {
          "internalType": "uint256",
          "name": "",
          "type": "uint256"
        }
      ],
      "stateMutability": "view",
      "type": "function"
    },
    {
      "inputs": [
        {
          "internalType": "uint256",
          "name": "tokenId",
          "type": "uint256"
        }
      ],
      "name": "burn",
      "outputs": [],
      "stateMutability": "nonpayable",
      "type": "function"
    },
    {
      "inputs": [
        {
          "internalType": "uint256",
          "name": "tokenId",
          "type": "uint256"
        }
      ],
      "name": "getApproved",
      "outputs": [
        {
          "internalType": "address",
          "name": "",
          "type": "address"
        }
      ],
      "stateMutability": "view",
      "type": "function"
    },
    {
      "inputs": [
        {
          "internalType": "address",
          "name": "owner",
          "type": "address"
        },
        {
          "internalType": "address",
          "name": "operator",
          "type": "address"
        }
      ],
      "name": "isApprovedForAll",
      "outputs": [
        {
          "internalType": "bool",
          "name": "",
          "type": "bool"
        }
      ],
      "stateMutability": "view",
      "type": "function"
    },
    {
      "inputs": [],
      "name": "name",
      "outputs": [
        {
          "internalType": "string",
          "name": "",
          "type": "string"
        }
      ],
      "stateMutability": "view",
      "type": "function"
    },
    {
      "inputs": [],
      "name": "owner",
      "outputs": [
        {
          "internalType": "address",
          "name": "",
          "type": "address"
        }
      ],
      "stateMutability": "view",
      "type": "function"
    },
    {
      "inputs": [
        {
          "internalType": "uint256",
          "name": "tokenId",
          "type": "uint256"
        }
      ],
      "name": "ownerOf",
      "outputs": [
        {
          "internalType": "address",
          "name": "",
          "type": "address"
        }
      ],
      "stateMutability": "view",
      "type": "function"
    },
    {
      "inputs": [],
      "name": "renounceOwnership",
      "outputs": [],
      "stateMutability": "nonpayable",
      "type": "function"
    },
    {
      "inputs": [
        {
          "internalType": "address",
          "name": "to",
          "type": "address"
        }
      ],
      "name": "safeMint",
      "outputs": [],
      "stateMutability": "nonpayable",
      "type": "function"
    },
    {
      "inputs": [
        {
          "internalType": "address",
          "name": "from",
          "type": "address"
        },
        {
          "internalType": "address",
          "name": "to",
          "type": "address"
        },
        {
          "internalType": "uint256",
          "name": "tokenId",
          "type": "uint256"
        }
      ],
      "name": "safeTransferFrom",
      "outputs": [],
      "stateMutability": "nonpayable",
      "type": "function"
    },
    {
      "inputs": [
        {
          "internalType": "address",
          "name": "from",
          "type": "address"
        },
        {
          "internalType": "address",
          "name": "to",
          "type": "address"
        },
        {
          "internalType": "uint256",
          "name": "tokenId",
          "type": "uint256"
        },
        {
          "internalType": "bytes",
          "name": "data",
          "type": "bytes"
        }
      ],
      "name": "safeTransferFrom",
      "outputs": [],
      "stateMutability": "nonpayable",
      "type": "function"
    },
    {
      "inputs": [
        {
          "internalType": "address",
          "name": "operator",
          "type": "address"
        },
        {
          "internalType": "bool",
          "name": "approved",
          "type": "bool"
        }
      ],
      "name": "setApprovalForAll",
      "outputs": [],
      "stateMutability": "nonpayable",
      "type": "function"
    },
    {
      "inputs": [
        {
          "internalType": "bytes4",
          "name": "interfaceId",
          "type": "bytes4"
        }
      ],
      "name": "supportsInterface",
      "outputs": [
        {
          "internalType": "bool",
          "name": "",
          "type": "bool"
        }
      ],
      "stateMutability": "view",
      "type": "function"
    },
    {
      "inputs": [],
      "name": "symbol",
      "outputs": [
        {
          "internalType": "string",
          "name": "",
          "type": "string"
        }
      ],
      "stateMutability": "view",
      "type": "function"
    },
    {
      "inputs": [
        {
          "internalType": "uint256",
          "name": "tokenId",
          "type": "uint256"
        }
      ],
      "name": "tokenURI",
      "outputs": [
        {
          "internalType": "string",
          "name": "",
          "type": "string"
        }
      ],
      "stateMutability": "view",
      "type": "function"
    },
    {
      "inputs": [
        {
          "internalType": "address",
          "name": "from",
          "type": "address"
        },
        {
          "internalType": "address",
          "name": "to",
          "type": "address"
        },
        {
          "internalType": "uint256",
          "name": "tokenId",
          "type": "uint256"
        }
      ],
      "name": "transferFrom",
      "outputs": [],
      "stateMutability": "nonpayable",
      "type": "function"
    },
    {
      "inputs": [
        {
          "internalType": "address",
          "name": "newOwner",
          "type": "address"
        }
      ],
      "name": "transferOwnership",
      "outputs": [],
      "stateMutability": "nonpayable",
      "type": "function"
    }
  ],
  "bytecode": "0x60806040523480156200001157600080fd5b506040516200279b3803806200279b833981810160405281019062000037919062000288565b806040518060400160405280600781526020017f4d79546f6b656e000000000000000000000000000000000000000000000000008152506040518060400160405280600381526020017f4d544b00000000000000000000000000000000000000000000000000000000008152508160009081620000b5919062000534565b508060019081620000c7919062000534565b505050600073ffffffffffffffffffffffffffffffffffffffff168173ffffffffffffffffffffffffffffffffffffffff16036200013f5760006040517f1e4fbdf70000000000000000000000000000000000000000000000000000000081526004016200013691906200062c565b60405180910390fd5b62000150816200015860201b60201c565b505062000649565b6000600660009054906101000a900473ffffffffffffffffffffffffffffffffffffffff16905081600660006101000a81548173ffffffffffffffffffffffffffffffffffffffff021916908373ffffffffffffffffffffffffffffffffffffffff1602179055508173ffffffffffffffffffffffffffffffffffffffff168173ffffffffffffffffffffffffffffffffffffffff167f8be0079c531659141344cd1fd0a4f28419497f9722a3daafe3b4186f6b6457e060405160405180910390a35050565b600080fd5b600073ffffffffffffffffffffffffffffffffffffffff82169050919050565b6000620002508262000223565b9050919050565b620002628162000243565b81146200026e57600080fd5b50565b600081519050620002828162000257565b92915050565b600060208284031215620002a157620002a06200021e565b5b6000620002b18482850162000271565b91505092915050565b600081519050919050565b7f4e487b7100000000000000000000000000000000000000000000000000000000600052604160045260246000fd5b7f4e487b7100000000000000000000000000000000000000000000000000000000600052602260045260246000fd5b600060028204905060018216806200033c57607f821691505b602082108103620003525762000351620002f4565b5b50919050565b60008190508160005260206000209050919050565b60006020601f8301049050919050565b600082821b905092915050565b600060088302620003bc7fffffffffffffffffffffffffffffffffffffffffffffffffffffffffffffffff826200037d565b620003c886836200037d565b95508019841693508086168417925050509392505050565b6000819050919050565b6000819050919050565b6000620004156200040f6200040984620003e0565b620003ea565b620003e0565b9050919050565b6000819050919050565b6200043183620003f4565b6200044962000440826200041c565b8484546200038a565b825550505050565b600090565b6200046062000451565b6200046d81848462000426565b505050565b5b8181101562000495576200048960008262000456565b60018101905062000473565b5050565b601f821115620004e457620004ae8162000358565b620004b9846200036d565b81016020851015620004c9578190505b620004e1620004d8856200036d565b83018262000472565b50505b505050565b600082821c905092915050565b60006200050960001984600802620004e9565b1980831691505092915050565b6000620005248383620004f6565b9150826002028217905092915050565b6200053f82620002ba565b67ffffffffffffffff8111156200055b576200055a620002c5565b5b62000567825462000323565b6200057482828562000499565b600060209050601f831160018114620005ac576000841562000597578287015190505b620005a3858262000516565b86555062000613565b601f198416620005bc8662000358565b60005b82811015620005e657848901518255600182019150602085019450602081019050620005bf565b8683101562000606578489015162000602601f891682620004f6565b8355505b6001600288020188555050505b505050505050565b620006268162000243565b82525050565b60006020820190506200064360008301846200061b565b92915050565b61214280620006596000396000f3fe608060405234801561001057600080fd5b50600436106101165760003560e01c806370a08231116100a2578063a22cb46511610071578063a22cb465146102cb578063b88d4fde146102e7578063c87b56dd14610303578063e985e9c514610333578063f2fde38b1461036357610116565b806370a0823114610255578063715018a6146102855780638da5cb5b1461028f57806395d89b41146102ad57610116565b806323b872dd116100e957806323b872dd146101b557806340d097c3146101d157806342842e0e146101ed57806342966c68146102095780636352211e1461022557610116565b806301ffc9a71461011b57806306fdde031461014b578063081812fc14610169578063095ea7b314610199575b600080fd5b61013560048036038101906101309190611915565b61037f565b604051610142919061195d565b60405180910390f35b610153610461565b6040516101609190611a08565b60405180910390f35b610183600480360381019061017e9190611a60565b6104f3565b6040516101909190611ace565b60405180910390f35b6101b360048036038101906101ae9190611b15565b61050f565b005b6101cf60048036038101906101ca9190611b55565b610525565b005b6101eb60048036038101906101e69190611ba8565b610627565b005b61020760048036038101906102029190611b55565b610658565b005b610223600480360381019061021e9190611a60565b610678565b005b61023f600480360381019061023a9190611a60565b61068f565b60405161024c9190611ace565b60405180910390f35b61026f600480360381019061026a9190611ba8565b6106a1565b60405161027c9190611be4565b60405180910390f35b61028d61075b565b005b61029761076f565b6040516102a49190611ace565b60405180910390f35b6102b5610799565b6040516102c29190611a08565b60405180910390f35b6102e560048036038101906102e09190611c2b565b61082b565b005b61030160048036038101906102fc9190611da0565b610841565b005b61031d60048036038101906103189190611a60565b61085e565b60405161032a9190611a08565b60405180910390f35b61034d60048036038101906103489190611e23565b6108c7565b60405161035a919061195d565b60405180910390f35b61037d60048036038101906103789190611ba8565b61095b565b005b60007f80ac58cd000000000000000000000000000000000000000000000000000000007bffffffffffffffffffffffffffffffffffffffffffffffffffffffff1916827bffffffffffffffffffffffffffffffffffffffffffffffffffffffff1916148061044a57507f5b5e139f000000000000000000000000000000000000000000000000000000007bffffffffffffffffffffffffffffffffffffffffffffffffffffffff1916827bffffffffffffffffffffffffffffffffffffffffffffffffffffffff1916145b8061045a5750610459826109e1565b5b9050919050565b60606000805461047090611e92565b80601f016020809104026020016040519081016040528092919081815260200182805461049c90611e92565b80156104e95780601f106104be576101008083540402835291602001916104e9565b820191906000526020600020905b8154815290600101906020018083116104cc57829003601f168201915b5050505050905090565b60006104fe82610a4b565b5061050882610ad3565b9050919050565b610521828261051c610b10565b610b18565b5050565b600073ffffffffffffffffffffffffffffffffffffffff168273ffffffffffffffffffffffffffffffffffffffff16036105975760006040517f64a0ae9200000000000000000000000000000000000000000000000000000000815260040161058e9190611ace565b60405180910390fd5b60006105ab83836105a6610b10565b610b2a565b90508373ffffffffffffffffffffffffffffffffffffffff168173ffffffffffffffffffffffffffffffffffffffff1614610621578382826040517f64283d7b00000000000000000000000000000000000000000000000000000000815260040161061893929190611ec3565b60405180910390fd5b50505050565b61062f610d44565b60006007600081548092919061064490611f29565b9190505590506106548282610dcb565b5050565b61067383838360405180602001604052806000815250610841565b505050565b61068b600082610686610b10565b610b2a565b5050565b600061069a82610a4b565b9050919050565b60008073ffffffffffffffffffffffffffffffffffffffff168273ffffffffffffffffffffffffffffffffffffffff16036107145760006040517f89c62b6400000000000000000000000000000000000000000000000000000000815260040161070b9190611ace565b60405180910390fd5b600360008373ffffffffffffffffffffffffffffffffffffffff1673ffffffffffffffffffffffffffffffffffffffff168152602001908152602001600020549050919050565b610763610d44565b61076d6000610de9565b565b6000600660009054906101000a900473ffffffffffffffffffffffffffffffffffffffff16905090565b6060600180546107a890611e92565b80601f01602080910402602001604051908101604052809291908181526020018280546107d490611e92565b80156108215780601f106107f657610100808354040283529160200191610821565b820191906000526020600020905b81548152906001019060200180831161080457829003601f168201915b5050505050905090565b61083d610836610b10565b8383610eaf565b5050565b61084c848484610525565b6108588484848461101e565b50505050565b606061086982610a4b565b5060006108746111d5565b9050600081511161089457604051806020016040528060008152506108bf565b8061089e846111ec565b6040516020016108af929190611fad565b6040516020818303038152906040525b915050919050565b6000600560008473ffffffffffffffffffffffffffffffffffffffff1673ffffffffffffffffffffffffffffffffffffffff16815260200190815260200160002060008373ffffffffffffffffffffffffffffffffffffffff1673ffffffffffffffffffffffffffffffffffffffff16815260200190815260200160002060009054906101000a900460ff16905092915050565b610963610d44565b600073ffffffffffffffffffffffffffffffffffffffff168173ffffffffffffffffffffffffffffffffffffffff16036109d55760006040517f1e4fbdf70000000000000000000000000000000000000000000000000000000081526004016109cc9190611ace565b60405180910390fd5b6109de81610de9565b50565b60007f01ffc9a7000000000000000000000000000000000000000000000000000000007bffffffffffffffffffffffffffffffffffffffffffffffffffffffff1916827bffffffffffffffffffffffffffffffffffffffffffffffffffffffff1916149050919050565b600080610a57836112ba565b9050600073ffffffffffffffffffffffffffffffffffffffff168173ffffffffffffffffffffffffffffffffffffffff1603610aca57826040517f7e273289000000000000000000000000000000000000000000000000000000008152600401610ac19190611be4565b60405180910390fd5b80915050919050565b60006004600083815260200190815260200160002060009054906101000a900473ffffffffffffffffffffffffffffffffffffffff169050919050565b600033905090565b610b2583838360016112f7565b505050565b600080610b36846112ba565b9050600073ffffffffffffffffffffffffffffffffffffffff168373ffffffffffffffffffffffffffffffffffffffff1614610b7857610b778184866114bc565b5b600073ffffffffffffffffffffffffffffffffffffffff168173ffffffffffffffffffffffffffffffffffffffff1614610c0957610bba6000856000806112f7565b6001600360008373ffffffffffffffffffffffffffffffffffffffff1673ffffffffffffffffffffffffffffffffffffffff168152602001908152602001600020600082825403925050819055505b600073ffffffffffffffffffffffffffffffffffffffff168573ffffffffffffffffffffffffffffffffffffffff1614610c8c576001600360008773ffffffffffffffffffffffffffffffffffffffff1673ffffffffffffffffffffffffffffffffffffffff168152602001908152602001600020600082825401925050819055505b846002600086815260200190815260200160002060006101000a81548173ffffffffffffffffffffffffffffffffffffffff021916908373ffffffffffffffffffffffffffffffffffffffff160217905550838573ffffffffffffffffffffffffffffffffffffffff168273ffffffffffffffffffffffffffffffffffffffff167fddf252ad1be2c89b69c2b068fc378daa952ba7f163c4a11628f55a4df523b3ef60405160405180910390a4809150509392505050565b610d4c610b10565b73ffffffffffffffffffffffffffffffffffffffff16610d6a61076f565b73ffffffffffffffffffffffffffffffffffffffff1614610dc957610d8d610b10565b6040517f118cdaa7000000000000000000000000000000000000000000000000000000008152600401610dc09190611ace565b60405180910390fd5b565b610de5828260405180602001604052806000815250611580565b5050565b6000600660009054906101000a900473ffffffffffffffffffffffffffffffffffffffff16905081600660006101000a81548173ffffffffffffffffffffffffffffffffffffffff021916908373ffffffffffffffffffffffffffffffffffffffff1602179055508173ffffffffffffffffffffffffffffffffffffffff168173ffffffffffffffffffffffffffffffffffffffff167f8be0079c531659141344cd1fd0a4f28419497f9722a3daafe3b4186f6b6457e060405160405180910390a35050565b600073ffffffffffffffffffffffffffffffffffffffff168273ffffffffffffffffffffffffffffffffffffffff1603610f2057816040517f5b08ba18000000000000000000000000000000000000000000000000000000008152600401610f179190611ace565b60405180910390fd5b80600560008573ffffffffffffffffffffffffffffffffffffffff1673ffffffffffffffffffffffffffffffffffffffff16815260200190815260200160002060008473ffffffffffffffffffffffffffffffffffffffff1673ffffffffffffffffffffffffffffffffffffffff16815260200190815260200160002060006101000a81548160ff0219169083151502179055508173ffffffffffffffffffffffffffffffffffffffff168373ffffffffffffffffffffffffffffffffffffffff167f17307eab39ab6107e8899845ad3d59bd9653f200f220920489ca2b5937696c3183604051611011919061195d565b60405180910390a3505050565b60008373ffffffffffffffffffffffffffffffffffffffff163b11156111cf578273ffffffffffffffffffffffffffffffffffffffff1663150b7a02611062610b10565b8685856040518563ffffffff1660e01b81526004016110849493929190612026565b6020604051808303816000875af19250505080156110c057506040513d601f19601f820116820180604052508101906110bd9190612087565b60015b611144573d80600081146110f0576040519150601f19603f3d011682016040523d82523d6000602084013e6110f5565b606091505b50600081510361113c57836040517f64a0ae920000000000000000000000000000000000000000000000000000000081526004016111339190611ace565b60405180910390fd5b805181602001fd5b63150b7a0260e01b7bffffffffffffffffffffffffffffffffffffffffffffffffffffffff1916817bffffffffffffffffffffffffffffffffffffffffffffffffffffffff1916146111cd57836040517f64a0ae920000000000000000000000000000000000000000000000000000000081526004016111c49190611ace565b60405180910390fd5b505b50505050565b606060405180602001604052806000815250905090565b6060600060016111fb8461159c565b01905060008167ffffffffffffffff81111561121a57611219611c75565b5b6040519080825280601f01601f19166020018201604052801561124c5781602001600182028036833780820191505090505b509050600082602001820190505b6001156112af578080600190039150507f3031323334353637383961626364656600000000000000000000000000000000600a86061a8153600a85816112a3576112a26120b4565b5b0494506000850361125a575b819350505050919050565b60006002600083815260200190815260200160002060009054906101000a900473ffffffffffffffffffffffffffffffffffffffff169050919050565b80806113305750600073ffffffffffffffffffffffffffffffffffffffff168273ffffffffffffffffffffffffffffffffffffffff1614155b1561146457600061134084610a4b565b9050600073ffffffffffffffffffffffffffffffffffffffff168373ffffffffffffffffffffffffffffffffffffffff16141580156113ab57508273ffffffffffffffffffffffffffffffffffffffff168173ffffffffffffffffffffffffffffffffffffffff1614155b80156113be57506113bc81846108c7565b155b1561140057826040517fa9fbf51f0000000000000000000000000000000000000000000000000000000081526004016113f79190611ace565b60405180910390fd5b811561146257838573ffffffffffffffffffffffffffffffffffffffff168273ffffffffffffffffffffffffffffffffffffffff167f8c5be1e5ebec7d5bd14f71427d1e84f3dd0314c0f7b2291e5b200ac8c7c3b92560405160405180910390a45b505b836004600085815260200190815260200160002060006101000a81548173ffffffffffffffffffffffffffffffffffffffff021916908373ffffffffffffffffffffffffffffffffffffffff16021790555050505050565b6114c78383836116ef565b61157b57600073ffffffffffffffffffffffffffffffffffffffff168373ffffffffffffffffffffffffffffffffffffffff160361153c57806040517f7e2732890000000000000000000000000000000000000000000000000000000081526004016115339190611be4565b60405180910390fd5b81816040517f177e802f0000000000000000000000000000000000000000000000000000000081526004016115729291906120e3565b60405180910390fd5b505050565b61158a83836117b0565b611597600084848461101e565b505050565b600080600090507a184f03e93ff9f4daa797ed6e38ed64bf6a1f01000000000000000083106115fa577a184f03e93ff9f4daa797ed6e38ed64bf6a1f01000000000000000083816115f0576115ef6120b4565b5b0492506040810190505b6d04ee2d6d415b85acef81000000008310611637576d04ee2d6d415b85acef8100000000838161162d5761162c6120b4565b5b0492506020810190505b662386f26fc10000831061166657662386f26fc10000838161165c5761165b6120b4565b5b0492506010810190505b6305f5e100831061168f576305f5e1008381611685576116846120b4565b5b0492506008810190505b61271083106116b45761271083816116aa576116a96120b4565b5b0492506004810190505b606483106116d757606483816116cd576116cc6120b4565b5b0492506002810190505b600a83106116e6576001810190505b80915050919050565b60008073ffffffffffffffffffffffffffffffffffffffff168373ffffffffffffffffffffffffffffffffffffffff16141580156117a757508273ffffffffffffffffffffffffffffffffffffffff168473ffffffffffffffffffffffffffffffffffffffff161480611768575061176784846108c7565b5b806117a657508273ffffffffffffffffffffffffffffffffffffffff1661178e83610ad3565b73ffffffffffffffffffffffffffffffffffffffff16145b5b90509392505050565b600073ffffffffffffffffffffffffffffffffffffffff168273ffffffffffffffffffffffffffffffffffffffff16036118225760006040517f64a0ae920000000000000000000000000000000000000000000000000000000081526004016118199190611ace565b60405180910390fd5b600061183083836000610b2a565b9050600073ffffffffffffffffffffffffffffffffffffffff168173ffffffffffffffffffffffffffffffffffffffff16146118a45760006040517f73c6ac6e00000000000000000000000000000000000000000000000000000000815260040161189b9190611ace565b60405180910390fd5b505050565b6000604051905090565b600080fd5b600080fd5b60007fffffffff0000000000000000000000000000000000000000000000000000000082169050919050565b6118f2816118bd565b81146118fd57600080fd5b50565b60008135905061190f816118e9565b92915050565b60006020828403121561192b5761192a6118b3565b5b600061193984828501611900565b91505092915050565b60008115159050919050565b61195781611942565b82525050565b6000602082019050611972600083018461194e565b92915050565b600081519050919050565b600082825260208201905092915050565b60005b838110156119b2578082015181840152602081019050611997565b60008484015250505050565b6000601f19601f8301169050919050565b60006119da82611978565b6119e48185611983565b93506119f4818560208601611994565b6119fd816119be565b840191505092915050565b60006020820190508181036000830152611a2281846119cf565b905092915050565b6000819050919050565b611a3d81611a2a565b8114611a4857600080fd5b50565b600081359050611a5a81611a34565b92915050565b600060208284031215611a7657611a756118b3565b5b6000611a8484828501611a4b565b91505092915050565b600073ffffffffffffffffffffffffffffffffffffffff82169050919050565b6000611ab882611a8d565b9050919050565b611ac881611aad565b82525050565b6000602082019050611ae36000830184611abf565b92915050565b611af281611aad565b8114611afd57600080fd5b50565b600081359050611b0f81611ae9565b92915050565b60008060408385031215611b2c57611b2b6118b3565b5b6000611b3a85828601611b00565b9250506020611b4b85828601611a4b565b9150509250929050565b600080600060608486031215611b6e57611b6d6118b3565b5b6000611b7c86828701611b00565b9350506020611b8d86828701611b00565b9250506040611b9e86828701611a4b565b9150509250925092565b600060208284031215611bbe57611bbd6118b3565b5b6000611bcc84828501611b00565b91505092915050565b611bde81611a2a565b82525050565b6000602082019050611bf96000830184611bd5565b92915050565b611c0881611942565b8114611c1357600080fd5b50565b600081359050611c2581611bff565b92915050565b60008060408385031215611c4257611c416118b3565b5b6000611c5085828601611b00565b9250506020611c6185828601611c16565b9150509250929050565b600080fd5b600080fd5b7f4e487b7100000000000000000000000000000000000000000000000000000000600052604160045260246000fd5b611cad826119be565b810181811067ffffffffffffffff82111715611ccc57611ccb611c75565b5b80604052505050565b6000611cdf6118a9565b9050611ceb8282611ca4565b919050565b600067ffffffffffffffff821115611d0b57611d0a611c75565b5b611d14826119be565b9050602081019050919050565b82818337600083830152505050565b6000611d43611d3e84611cf0565b611cd5565b905082815260208101848484011115611d5f57611d5e611c70565b5b611d6a848285611d21565b509392505050565b600082601f830112611d8757611d86611c6b565b5b8135611d97848260208601611d30565b91505092915050565b60008060008060808587031215611dba57611db96118b3565b5b6000611dc887828801611b00565b9450506020611dd987828801611b00565b9350506040611dea87828801611a4b565b925050606085013567ffffffffffffffff811115611e0b57611e0a6118b8565b5b611e1787828801611d72565b91505092959194509250565b60008060408385031215611e3a57611e396118b3565b5b6000611e4885828601611b00565b9250506020611e5985828601611b00565b9150509250929050565b7f4e487b7100000000000000000000000000000000000000000000000000000000600052602260045260246000fd5b60006002820490506001821680611eaa57607f821691505b602082108103611ebd57611ebc611e63565b5b50919050565b6000606082019050611ed86000830186611abf565b611ee56020830185611bd5565b611ef26040830184611abf565b949350505050565b7f4e487b7100000000000000000000000000000000000000000000000000000000600052601160045260246000fd5b6000611f3482611a2a565b91507fffffffffffffffffffffffffffffffffffffffffffffffffffffffffffffffff8203611f6657611f65611efa565b5b600182019050919050565b600081905092915050565b6000611f8782611978565b611f918185611f71565b9350611fa1818560208601611994565b80840191505092915050565b6000611fb98285611f7c565b9150611fc58284611f7c565b91508190509392505050565b600081519050919050565b600082825260208201905092915050565b6000611ff882611fd1565b6120028185611fdc565b9350612012818560208601611994565b61201b816119be565b840191505092915050565b600060808201905061203b6000830187611abf565b6120486020830186611abf565b6120556040830185611bd5565b81810360608301526120678184611fed565b905095945050505050565b600081519050612081816118e9565b92915050565b60006020828403121561209d5761209c6118b3565b5b60006120ab84828501612072565b91505092915050565b7f4e487b7100000000000000000000000000000000000000000000000000000000600052601260045260246000fd5b60006040820190506120f86000830185611abf565b6121056020830184611bd5565b939250505056fea264697066735822122065e4d5f5a0a4c5ddfb325dda4508886c3896f37a60bdceaf063db17c1585a24e64736f6c63430008180033",
  "linkReferences": {},
  "deployedLinkReferences": {}
}