{
  "_format": "hh-sol-artifact-1",
  "contractName": "FourCollect",
  "sourceName": "contracts/FourCollection.sol",
  "abi": [
    {
      "inputs": [
        {
          "internalType": "address",
          "name": "initialOwner",
          "type": "address"
        }
      ],
      "stateMutability": "nonpayable",
      "type": "constructor"
    },
    {
      "inputs": [
        {
          "internalType": "address",
          "name": "sender",
          "type": "address"
        },
        {
          "internalType": "uint256",
          "name": "tokenId",
          "type": "uint256"
        },
        {
          "internalType": "address",
          "name": "owner",
          "type": "address"
        }
      ],
      "name": "ERC721IncorrectOwner",
      "type": "error"
    },
    {
      "inputs": [
        {
          "internalType": "address",
          "name": "operator",
          "type": "address"
        },
        {
          "internalType": "uint256",
          "name": "tokenId",
          "type": "uint256"
        }
      ],
      "name": "ERC721InsufficientApproval",
      "type": "error"
    },
    {
      "inputs": [
        {
          "internalType": "address",
          "name": "approver",
          "type": "address"
        }
      ],
      "name": "ERC721InvalidApprover",
      "type": "error"
    },
    {
      "inputs": [
        {
          "internalType": "address",
          "name": "operator",
          "type": "address"
        }
      ],
      "name": "ERC721InvalidOperator",
      "type": "error"
    },
    {
      "inputs": [
        {
          "internalType": "address",
          "name": "owner",
          "type": "address"
        }
      ],
      "name": "ERC721InvalidOwner",
      "type": "error"
    },
    {
      "inputs": [
        {
          "internalType": "address",
          "name": "receiver",
          "type": "address"
        }
      ],
      "name": "ERC721InvalidReceiver",
      "type": "error"
    },
    {
      "inputs": [
        {
          "internalType": "address",
          "name": "sender",
          "type": "address"
        }
      ],
      "name": "ERC721InvalidSender",
      "type": "error"
    },
    {
      "inputs": [
        {
          "internalType": "uint256",
          "name": "tokenId",
          "type": "uint256"
        }
      ],
      "name": "ERC721NonexistentToken",
      "type": "error"
    },
    {
      "inputs": [
        {
          "internalType": "address",
          "name": "owner",
          "type": "address"
        }
      ],
      "name": "OwnableInvalidOwner",
      "type": "error"
    },
    {
      "inputs": [
        {
          "internalType": "address",
          "name": "account",
          "type": "address"
        }
      ],
      "name": "OwnableUnauthorizedAccount",
      "type": "error"
    },
    {
      "anonymous": false,
      "inputs": [
        {
          "indexed": true,
          "internalType": "address",
          "name": "owner",
          "type": "address"
        },
        {
          "indexed": true,
          "internalType": "address",
          "name": "approved",
          "type": "address"
        },
        {
          "indexed": true,
          "internalType": "uint256",
          "name": "tokenId",
          "type": "uint256"
        }
      ],
      "name": "Approval",
      "type": "event"
    },
    {
      "anonymous": false,
      "inputs": [
        {
          "indexed": true,
          "internalType": "address",
          "name": "owner",
          "type": "address"
        },
        {
          "indexed": true,
          "internalType": "address",
          "name": "operator",
          "type": "address"
        },
        {
          "indexed": false,
          "internalType": "bool",
          "name": "approved",
          "type": "bool"
        }
      ],
      "name": "ApprovalForAll",
      "type": "event"
    },
    {
      "anonymous": false,
      "inputs": [
        {
          "indexed": false,
          "internalType": "uint256",
          "name": "_fromTokenId",
          "type": "uint256"
        },
        {
          "indexed": false,
          "internalType": "uint256",
          "name": "_toTokenId",
          "type": "uint256"
        }
      ],
      "name": "BatchMetadataUpdate",
      "type": "event"
    },
    {
      "anonymous": false,
      "inputs": [
        {
          "indexed": false,
          "internalType": "uint256",
          "name": "_tokenId",
          "type": "uint256"
        }
      ],
      "name": "MetadataUpdate",
      "type": "event"
    },
    {
      "anonymous": false,
      "inputs": [
        {
          "indexed": true,
          "internalType": "address",
          "name": "previousOwner",
          "type": "address"
        },
        {
          "indexed": true,
          "internalType": "address",
          "name": "newOwner",
          "type": "address"
        }
      ],
      "name": "OwnershipTransferred",
      "type": "event"
    },
    {
      "anonymous": false,
      "inputs": [
        {
          "indexed": true,
          "internalType": "address",
          "name": "from",
          "type": "address"
        },
        {
          "indexed": true,
          "internalType": "address",
          "name": "to",
          "type": "address"
        },
        {
          "indexed": true,
          "internalType": "uint256",
          "name": "tokenId",
          "type": "uint256"
        }
      ],
      "name": "Transfer",
      "type": "event"
    },
    {
      "inputs": [
        {
          "internalType": "address",
          "name": "to",
          "type": "address"
        },
        {
          "internalType": "uint256",
          "name": "tokenId",
          "type": "uint256"
        }
      ],
      "name": "approve",
      "outputs": [],
      "stateMutability": "nonpayable",
      "type": "function"
    },
    {
      "inputs": [
        {
          "internalType": "address",
          "name": "owner",
          "type": "address"
        }
      ],
      "name": "balanceOf",
      "outputs": [
        {
          "internalType": "uint256",
          "name": "",
          "type": "uint256"
        }
      ],
      "stateMutability": "view",
      "type": "function"
    },
    {
      "inputs": [
        {
          "internalType": "uint256",
          "name": "tokenId",
          "type": "uint256"
        }
      ],
      "name": "burn",
      "outputs": [],
      "stateMutability": "nonpayable",
      "type": "function"
    },
    {
      "inputs": [
        {
          "internalType": "uint256",
          "name": "tokenId",
          "type": "uint256"
        }
      ],
      "name": "getApproved",
      "outputs": [
        {
          "internalType": "address",
          "name": "",
          "type": "address"
        }
      ],
      "stateMutability": "view",
      "type": "function"
    },
    {
      "inputs": [
        {
          "internalType": "address",
          "name": "owner",
          "type": "address"
        },
        {
          "internalType": "address",
          "name": "operator",
          "type": "address"
        }
      ],
      "name": "isApprovedForAll",
      "outputs": [
        {
          "internalType": "bool",
          "name": "",
          "type": "bool"
        }
      ],
      "stateMutability": "view",
      "type": "function"
    },
    {
      "inputs": [],
      "name": "name",
      "outputs": [
        {
          "internalType": "string",
          "name": "",
          "type": "string"
        }
      ],
      "stateMutability": "view",
      "type": "function"
    },
    {
      "inputs": [],
      "name": "owner",
      "outputs": [
        {
          "internalType": "address",
          "name": "",
          "type": "address"
        }
      ],
      "stateMutability": "view",
      "type": "function"
    },
    {
      "inputs": [
        {
          "internalType": "uint256",
          "name": "tokenId",
          "type": "uint256"
        }
      ],
      "name": "ownerOf",
      "outputs": [
        {
          "internalType": "address",
          "name": "",
          "type": "address"
        }
      ],
      "stateMutability": "view",
      "type": "function"
    },
    {
      "inputs": [],
      "name": "renounceOwnership",
      "outputs": [],
      "stateMutability": "nonpayable",
      "type": "function"
    },
    {
      "inputs": [
        {
          "internalType": "address",
          "name": "to",
          "type": "address"
        },
        {
          "internalType": "string",
          "name": "uri",
          "type": "string"
        }
      ],
      "name": "safeMint",
      "outputs": [],
      "stateMutability": "nonpayable",
      "type": "function"
    },
    {
      "inputs": [
        {
          "internalType": "address",
          "name": "from",
          "type": "address"
        },
        {
          "internalType": "address",
          "name": "to",
          "type": "address"
        },
        {
          "internalType": "uint256",
          "name": "tokenId",
          "type": "uint256"
        }
      ],
      "name": "safeTransferFrom",
      "outputs": [],
      "stateMutability": "nonpayable",
      "type": "function"
    },
    {
      "inputs": [
        {
          "internalType": "address",
          "name": "from",
          "type": "address"
        },
        {
          "internalType": "address",
          "name": "to",
          "type": "address"
        },
        {
          "internalType": "uint256",
          "name": "tokenId",
          "type": "uint256"
        },
        {
          "internalType": "bytes",
          "name": "data",
          "type": "bytes"
        }
      ],
      "name": "safeTransferFrom",
      "outputs": [],
      "stateMutability": "nonpayable",
      "type": "function"
    },
    {
      "inputs": [
        {
          "internalType": "address",
          "name": "operator",
          "type": "address"
        },
        {
          "internalType": "bool",
          "name": "approved",
          "type": "bool"
        }
      ],
      "name": "setApprovalForAll",
      "outputs": [],
      "stateMutability": "nonpayable",
      "type": "function"
    },
    {
      "inputs": [
        {
          "internalType": "bytes4",
          "name": "interfaceId",
          "type": "bytes4"
        }
      ],
      "name": "supportsInterface",
      "outputs": [
        {
          "internalType": "bool",
          "name": "",
          "type": "bool"
        }
      ],
      "stateMutability": "view",
      "type": "function"
    },
    {
      "inputs": [],
      "name": "symbol",
      "outputs": [
        {
          "internalType": "string",
          "name": "",
          "type": "string"
        }
      ],
      "stateMutability": "view",
      "type": "function"
    },
    {
      "inputs": [
        {
          "internalType": "uint256",
          "name": "tokenId",
          "type": "uint256"
        }
      ],
      "name": "tokenURI",
      "outputs": [
        {
          "internalType": "string",
          "name": "",
          "type": "string"
        }
      ],
      "stateMutability": "view",
      "type": "function"
    },
    {
      "inputs": [
        {
          "internalType": "address",
          "name": "from",
          "type": "address"
        },
        {
          "internalType": "address",
          "name": "to",
          "type": "address"
        },
        {
          "internalType": "uint256",
          "name": "tokenId",
          "type": "uint256"
        }
      ],
      "name": "transferFrom",
      "outputs": [],
      "stateMutability": "nonpayable",
      "type": "function"
    },
    {
      "inputs": [
        {
          "internalType": "address",
          "name": "newOwner",
          "type": "address"
        }
      ],
      "name": "transferOwnership",
      "outputs": [],
      "stateMutability": "nonpayable",
      "type": "function"
    }
  ],
  "bytecode": "0x60806040523480156200001157600080fd5b5060405162002d1538038062002d15833981810160405281019062000037919062000288565b806040518060400160405280600781526020017f4d79546f6b656e000000000000000000000000000000000000000000000000008152506040518060400160405280600381526020017f4d544b00000000000000000000000000000000000000000000000000000000008152508160009081620000b5919062000534565b508060019081620000c7919062000534565b505050600073ffffffffffffffffffffffffffffffffffffffff168173ffffffffffffffffffffffffffffffffffffffff16036200013f5760006040517f1e4fbdf70000000000000000000000000000000000000000000000000000000081526004016200013691906200062c565b60405180910390fd5b62000150816200015860201b60201c565b505062000649565b6000600760009054906101000a900473ffffffffffffffffffffffffffffffffffffffff16905081600760006101000a81548173ffffffffffffffffffffffffffffffffffffffff021916908373ffffffffffffffffffffffffffffffffffffffff1602179055508173ffffffffffffffffffffffffffffffffffffffff168173ffffffffffffffffffffffffffffffffffffffff167f8be0079c531659141344cd1fd0a4f28419497f9722a3daafe3b4186f6b6457e060405160405180910390a35050565b600080fd5b600073ffffffffffffffffffffffffffffffffffffffff82169050919050565b6000620002508262000223565b9050919050565b620002628162000243565b81146200026e57600080fd5b50565b600081519050620002828162000257565b92915050565b600060208284031215620002a157620002a06200021e565b5b6000620002b18482850162000271565b91505092915050565b600081519050919050565b7f4e487b7100000000000000000000000000000000000000000000000000000000600052604160045260246000fd5b7f4e487b7100000000000000000000000000000000000000000000000000000000600052602260045260246000fd5b600060028204905060018216806200033c57607f821691505b602082108103620003525762000351620002f4565b5b50919050565b60008190508160005260206000209050919050565b60006020601f8301049050919050565b600082821b905092915050565b600060088302620003bc7fffffffffffffffffffffffffffffffffffffffffffffffffffffffffffffffff826200037d565b620003c886836200037d565b95508019841693508086168417925050509392505050565b6000819050919050565b6000819050919050565b6000620004156200040f6200040984620003e0565b620003ea565b620003e0565b9050919050565b6000819050919050565b6200043183620003f4565b6200044962000440826200041c565b8484546200038a565b825550505050565b600090565b6200046062000451565b6200046d81848462000426565b505050565b5b8181101562000495576200048960008262000456565b60018101905062000473565b5050565b601f821115620004e457620004ae8162000358565b620004b9846200036d565b81016020851015620004c9578190505b620004e1620004d8856200036d565b83018262000472565b50505b505050565b600082821c905092915050565b60006200050960001984600802620004e9565b1980831691505092915050565b6000620005248383620004f6565b9150826002028217905092915050565b6200053f82620002ba565b67ffffffffffffffff8111156200055b576200055a620002c5565b5b62000567825462000323565b6200057482828562000499565b600060209050601f831160018114620005ac576000841562000597578287015190505b620005a3858262000516565b86555062000613565b601f198416620005bc8662000358565b60005b82811015620005e657848901518255600182019150602085019450602081019050620005bf565b8683101562000606578489015162000602601f891682620004f6565b8355505b6001600288020188555050505b505050505050565b620006268162000243565b82525050565b60006020820190506200064360008301846200061b565b92915050565b6126bc80620006596000396000f3fe608060405234801561001057600080fd5b50600436106101165760003560e01c8063715018a6116100a2578063b88d4fde11610071578063b88d4fde146102cb578063c87b56dd146102e7578063d204c45e14610317578063e985e9c514610333578063f2fde38b1461036357610116565b8063715018a6146102695780638da5cb5b1461027357806395d89b4114610291578063a22cb465146102af57610116565b806323b872dd116100e957806323b872dd146101b557806342842e0e146101d157806342966c68146101ed5780636352211e1461020957806370a082311461023957610116565b806301ffc9a71461011b57806306fdde031461014b578063081812fc14610169578063095ea7b314610199575b600080fd5b61013560048036038101906101309190611b14565b61037f565b6040516101429190611b5c565b60405180910390f35b610153610391565b6040516101609190611c07565b60405180910390f35b610183600480360381019061017e9190611c5f565b610423565b6040516101909190611ccd565b60405180910390f35b6101b360048036038101906101ae9190611d14565b61043f565b005b6101cf60048036038101906101ca9190611d54565b610455565b005b6101eb60048036038101906101e69190611d54565b610557565b005b61020760048036038101906102029190611c5f565b610577565b005b610223600480360381019061021e9190611c5f565b61058e565b6040516102309190611ccd565b60405180910390f35b610253600480360381019061024e9190611da7565b6105a0565b6040516102609190611de3565b60405180910390f35b61027161065a565b005b61027b61066e565b6040516102889190611ccd565b60405180910390f35b610299610698565b6040516102a69190611c07565b60405180910390f35b6102c960048036038101906102c49190611e2a565b61072a565b005b6102e560048036038101906102e09190611f9f565b610740565b005b61030160048036038101906102fc9190611c5f565b61075d565b60405161030e9190611c07565b60405180910390f35b610331600480360381019061032c91906120c3565b61076f565b005b61034d6004803603810190610348919061211f565b6107ab565b60405161035a9190611b5c565b60405180910390f35b61037d60048036038101906103789190611da7565b61083f565b005b600061038a826108c5565b9050919050565b6060600080546103a09061218e565b80601f01602080910402602001604051908101604052809291908181526020018280546103cc9061218e565b80156104195780601f106103ee57610100808354040283529160200191610419565b820191906000526020600020905b8154815290600101906020018083116103fc57829003601f168201915b5050505050905090565b600061042e82610926565b50610438826109ae565b9050919050565b610451828261044c6109eb565b6109f3565b5050565b600073ffffffffffffffffffffffffffffffffffffffff168273ffffffffffffffffffffffffffffffffffffffff16036104c75760006040517f64a0ae920000000000000000000000000000000000000000000000000000000081526004016104be9190611ccd565b60405180910390fd5b60006104db83836104d66109eb565b610a05565b90508373ffffffffffffffffffffffffffffffffffffffff168173ffffffffffffffffffffffffffffffffffffffff1614610551578382826040517f64283d7b000000000000000000000000000000000000000000000000000000008152600401610548939291906121bf565b60405180910390fd5b50505050565b61057283838360405180602001604052806000815250610740565b505050565b61058a6000826105856109eb565b610a05565b5050565b600061059982610926565b9050919050565b60008073ffffffffffffffffffffffffffffffffffffffff168273ffffffffffffffffffffffffffffffffffffffff16036106135760006040517f89c62b6400000000000000000000000000000000000000000000000000000000815260040161060a9190611ccd565b60405180910390fd5b600360008373ffffffffffffffffffffffffffffffffffffffff1673ffffffffffffffffffffffffffffffffffffffff168152602001908152602001600020549050919050565b610662610c1f565b61066c6000610ca6565b565b6000600760009054906101000a900473ffffffffffffffffffffffffffffffffffffffff16905090565b6060600180546106a79061218e565b80601f01602080910402602001604051908101604052809291908181526020018280546106d39061218e565b80156107205780601f106106f557610100808354040283529160200191610720565b820191906000526020600020905b81548152906001019060200180831161070357829003601f168201915b5050505050905090565b61073c6107356109eb565b8383610d6c565b5050565b61074b848484610455565b61075784848484610edb565b50505050565b606061076882611092565b9050919050565b610777610c1f565b60006008600081548092919061078c90612225565b91905055905061079c83826111a5565b6107a681836111c3565b505050565b6000600560008473ffffffffffffffffffffffffffffffffffffffff1673ffffffffffffffffffffffffffffffffffffffff16815260200190815260200160002060008373ffffffffffffffffffffffffffffffffffffffff1673ffffffffffffffffffffffffffffffffffffffff16815260200190815260200160002060009054906101000a900460ff16905092915050565b610847610c1f565b600073ffffffffffffffffffffffffffffffffffffffff168173ffffffffffffffffffffffffffffffffffffffff16036108b95760006040517f1e4fbdf70000000000000000000000000000000000000000000000000000000081526004016108b09190611ccd565b60405180910390fd5b6108c281610ca6565b50565b6000634906490660e01b7bffffffffffffffffffffffffffffffffffffffffffffffffffffffff1916827bffffffffffffffffffffffffffffffffffffffffffffffffffffffff1916148061091f575061091e8261121f565b5b9050919050565b60008061093283611301565b9050600073ffffffffffffffffffffffffffffffffffffffff168173ffffffffffffffffffffffffffffffffffffffff16036109a557826040517f7e27328900000000000000000000000000000000000000000000000000000000815260040161099c9190611de3565b60405180910390fd5b80915050919050565b60006004600083815260200190815260200160002060009054906101000a900473ffffffffffffffffffffffffffffffffffffffff169050919050565b600033905090565b610a00838383600161133e565b505050565b600080610a1184611301565b9050600073ffffffffffffffffffffffffffffffffffffffff168373ffffffffffffffffffffffffffffffffffffffff1614610a5357610a52818486611503565b5b600073ffffffffffffffffffffffffffffffffffffffff168173ffffffffffffffffffffffffffffffffffffffff1614610ae457610a9560008560008061133e565b6001600360008373ffffffffffffffffffffffffffffffffffffffff1673ffffffffffffffffffffffffffffffffffffffff168152602001908152602001600020600082825403925050819055505b600073ffffffffffffffffffffffffffffffffffffffff168573ffffffffffffffffffffffffffffffffffffffff1614610b67576001600360008773ffffffffffffffffffffffffffffffffffffffff1673ffffffffffffffffffffffffffffffffffffffff168152602001908152602001600020600082825401925050819055505b846002600086815260200190815260200160002060006101000a81548173ffffffffffffffffffffffffffffffffffffffff021916908373ffffffffffffffffffffffffffffffffffffffff160217905550838573ffffffffffffffffffffffffffffffffffffffff168273ffffffffffffffffffffffffffffffffffffffff167fddf252ad1be2c89b69c2b068fc378daa952ba7f163c4a11628f55a4df523b3ef60405160405180910390a4809150509392505050565b610c276109eb565b73ffffffffffffffffffffffffffffffffffffffff16610c4561066e565b73ffffffffffffffffffffffffffffffffffffffff1614610ca457610c686109eb565b6040517f118cdaa7000000000000000000000000000000000000000000000000000000008152600401610c9b9190611ccd565b60405180910390fd5b565b6000600760009054906101000a900473ffffffffffffffffffffffffffffffffffffffff16905081600760006101000a81548173ffffffffffffffffffffffffffffffffffffffff021916908373ffffffffffffffffffffffffffffffffffffffff1602179055508173ffffffffffffffffffffffffffffffffffffffff168173ffffffffffffffffffffffffffffffffffffffff167f8be0079c531659141344cd1fd0a4f28419497f9722a3daafe3b4186f6b6457e060405160405180910390a35050565b600073ffffffffffffffffffffffffffffffffffffffff168273ffffffffffffffffffffffffffffffffffffffff1603610ddd57816040517f5b08ba18000000000000000000000000000000000000000000000000000000008152600401610dd49190611ccd565b60405180910390fd5b80600560008573ffffffffffffffffffffffffffffffffffffffff1673ffffffffffffffffffffffffffffffffffffffff16815260200190815260200160002060008473ffffffffffffffffffffffffffffffffffffffff1673ffffffffffffffffffffffffffffffffffffffff16815260200190815260200160002060006101000a81548160ff0219169083151502179055508173ffffffffffffffffffffffffffffffffffffffff168373ffffffffffffffffffffffffffffffffffffffff167f17307eab39ab6107e8899845ad3d59bd9653f200f220920489ca2b5937696c3183604051610ece9190611b5c565b60405180910390a3505050565b60008373ffffffffffffffffffffffffffffffffffffffff163b111561108c578273ffffffffffffffffffffffffffffffffffffffff1663150b7a02610f1f6109eb565b8685856040518563ffffffff1660e01b8152600401610f4194939291906122c2565b6020604051808303816000875af1925050508015610f7d57506040513d601f19601f82011682018060405250810190610f7a9190612323565b60015b611001573d8060008114610fad576040519150601f19603f3d011682016040523d82523d6000602084013e610fb2565b606091505b506000815103610ff957836040517f64a0ae92000000000000000000000000000000000000000000000000000000008152600401610ff09190611ccd565b60405180910390fd5b805181602001fd5b63150b7a0260e01b7bffffffffffffffffffffffffffffffffffffffffffffffffffffffff1916817bffffffffffffffffffffffffffffffffffffffffffffffffffffffff19161461108a57836040517f64a0ae920000000000000000000000000000000000000000000000000000000081526004016110819190611ccd565b60405180910390fd5b505b50505050565b606061109d82610926565b5060006006600084815260200190815260200160002080546110be9061218e565b80601f01602080910402602001604051908101604052809291908181526020018280546110ea9061218e565b80156111375780601f1061110c57610100808354040283529160200191611137565b820191906000526020600020905b81548152906001019060200180831161111a57829003601f168201915b5050505050905060006111486115c7565b9050600081510361115d5781925050506111a0565b60008251111561119257808260405160200161117a92919061238c565b604051602081830303815290604052925050506111a0565b61119b846115de565b925050505b919050565b6111bf828260405180602001604052806000815250611647565b5050565b806006600084815260200190815260200160002090816111e3919061255c565b507ff8e1a15aba9398e019f0b49df1a4fde98ee17ae345cb5f6b5e2c27f5033e8ce7826040516112139190611de3565b60405180910390a15050565b60007f80ac58cd000000000000000000000000000000000000000000000000000000007bffffffffffffffffffffffffffffffffffffffffffffffffffffffff1916827bffffffffffffffffffffffffffffffffffffffffffffffffffffffff191614806112ea57507f5b5e139f000000000000000000000000000000000000000000000000000000007bffffffffffffffffffffffffffffffffffffffffffffffffffffffff1916827bffffffffffffffffffffffffffffffffffffffffffffffffffffffff1916145b806112fa57506112f982611663565b5b9050919050565b60006002600083815260200190815260200160002060009054906101000a900473ffffffffffffffffffffffffffffffffffffffff169050919050565b80806113775750600073ffffffffffffffffffffffffffffffffffffffff168273ffffffffffffffffffffffffffffffffffffffff1614155b156114ab57600061138784610926565b9050600073ffffffffffffffffffffffffffffffffffffffff168373ffffffffffffffffffffffffffffffffffffffff16141580156113f257508273ffffffffffffffffffffffffffffffffffffffff168173ffffffffffffffffffffffffffffffffffffffff1614155b8015611405575061140381846107ab565b155b1561144757826040517fa9fbf51f00000000000000000000000000000000000000000000000000000000815260040161143e9190611ccd565b60405180910390fd5b81156114a957838573ffffffffffffffffffffffffffffffffffffffff168273ffffffffffffffffffffffffffffffffffffffff167f8c5be1e5ebec7d5bd14f71427d1e84f3dd0314c0f7b2291e5b200ac8c7c3b92560405160405180910390a45b505b836004600085815260200190815260200160002060006101000a81548173ffffffffffffffffffffffffffffffffffffffff021916908373ffffffffffffffffffffffffffffffffffffffff16021790555050505050565b61150e8383836116cd565b6115c257600073ffffffffffffffffffffffffffffffffffffffff168373ffffffffffffffffffffffffffffffffffffffff160361158357806040517f7e27328900000000000000000000000000000000000000000000000000000000815260040161157a9190611de3565b60405180910390fd5b81816040517f177e802f0000000000000000000000000000000000000000000000000000000081526004016115b992919061262e565b60405180910390fd5b505050565b606060405180602001604052806000815250905090565b60606115e982610926565b5060006115f46115c7565b90506000815111611614576040518060200160405280600081525061163f565b8061161e8461178e565b60405160200161162f92919061238c565b6040516020818303038152906040525b915050919050565b611651838361185c565b61165e6000848484610edb565b505050565b60007f01ffc9a7000000000000000000000000000000000000000000000000000000007bffffffffffffffffffffffffffffffffffffffffffffffffffffffff1916827bffffffffffffffffffffffffffffffffffffffffffffffffffffffff1916149050919050565b60008073ffffffffffffffffffffffffffffffffffffffff168373ffffffffffffffffffffffffffffffffffffffff161415801561178557508273ffffffffffffffffffffffffffffffffffffffff168473ffffffffffffffffffffffffffffffffffffffff161480611746575061174584846107ab565b5b8061178457508273ffffffffffffffffffffffffffffffffffffffff1661176c836109ae565b73ffffffffffffffffffffffffffffffffffffffff16145b5b90509392505050565b60606000600161179d84611955565b01905060008167ffffffffffffffff8111156117bc576117bb611e74565b5b6040519080825280601f01601f1916602001820160405280156117ee5781602001600182028036833780820191505090505b509050600082602001820190505b600115611851578080600190039150507f3031323334353637383961626364656600000000000000000000000000000000600a86061a8153600a858161184557611844612657565b5b049450600085036117fc575b819350505050919050565b600073ffffffffffffffffffffffffffffffffffffffff168273ffffffffffffffffffffffffffffffffffffffff16036118ce5760006040517f64a0ae920000000000000000000000000000000000000000000000000000000081526004016118c59190611ccd565b60405180910390fd5b60006118dc83836000610a05565b9050600073ffffffffffffffffffffffffffffffffffffffff168173ffffffffffffffffffffffffffffffffffffffff16146119505760006040517f73c6ac6e0000000000000000000000000000000000000000000000000000000081526004016119479190611ccd565b60405180910390fd5b505050565b600080600090507a184f03e93ff9f4daa797ed6e38ed64bf6a1f01000000000000000083106119b3577a184f03e93ff9f4daa797ed6e38ed64bf6a1f01000000000000000083816119a9576119a8612657565b5b0492506040810190505b6d04ee2d6d415b85acef810000000083106119f0576d04ee2d6d415b85acef810000000083816119e6576119e5612657565b5b0492506020810190505b662386f26fc100008310611a1f57662386f26fc100008381611a1557611a14612657565b5b0492506010810190505b6305f5e1008310611a48576305f5e1008381611a3e57611a3d612657565b5b0492506008810190505b6127108310611a6d576127108381611a6357611a62612657565b5b0492506004810190505b60648310611a905760648381611a8657611a85612657565b5b0492506002810190505b600a8310611a9f576001810190505b80915050919050565b6000604051905090565b600080fd5b600080fd5b60007fffffffff0000000000000000000000000000000000000000000000000000000082169050919050565b611af181611abc565b8114611afc57600080fd5b50565b600081359050611b0e81611ae8565b92915050565b600060208284031215611b2a57611b29611ab2565b5b6000611b3884828501611aff565b91505092915050565b60008115159050919050565b611b5681611b41565b82525050565b6000602082019050611b716000830184611b4d565b92915050565b600081519050919050565b600082825260208201905092915050565b60005b83811015611bb1578082015181840152602081019050611b96565b60008484015250505050565b6000601f19601f8301169050919050565b6000611bd982611b77565b611be38185611b82565b9350611bf3818560208601611b93565b611bfc81611bbd565b840191505092915050565b60006020820190508181036000830152611c218184611bce565b905092915050565b6000819050919050565b611c3c81611c29565b8114611c4757600080fd5b50565b600081359050611c5981611c33565b92915050565b600060208284031215611c7557611c74611ab2565b5b6000611c8384828501611c4a565b91505092915050565b600073ffffffffffffffffffffffffffffffffffffffff82169050919050565b6000611cb782611c8c565b9050919050565b611cc781611cac565b82525050565b6000602082019050611ce26000830184611cbe565b92915050565b611cf181611cac565b8114611cfc57600080fd5b50565b600081359050611d0e81611ce8565b92915050565b60008060408385031215611d2b57611d2a611ab2565b5b6000611d3985828601611cff565b9250506020611d4a85828601611c4a565b9150509250929050565b600080600060608486031215611d6d57611d6c611ab2565b5b6000611d7b86828701611cff565b9350506020611d8c86828701611cff565b9250506040611d9d86828701611c4a565b9150509250925092565b600060208284031215611dbd57611dbc611ab2565b5b6000611dcb84828501611cff565b91505092915050565b611ddd81611c29565b82525050565b6000602082019050611df86000830184611dd4565b92915050565b611e0781611b41565b8114611e1257600080fd5b50565b600081359050611e2481611dfe565b92915050565b60008060408385031215611e4157611e40611ab2565b5b6000611e4f85828601611cff565b9250506020611e6085828601611e15565b9150509250929050565b600080fd5b600080fd5b7f4e487b7100000000000000000000000000000000000000000000000000000000600052604160045260246000fd5b611eac82611bbd565b810181811067ffffffffffffffff82111715611ecb57611eca611e74565b5b80604052505050565b6000611ede611aa8565b9050611eea8282611ea3565b919050565b600067ffffffffffffffff821115611f0a57611f09611e74565b5b611f1382611bbd565b9050602081019050919050565b82818337600083830152505050565b6000611f42611f3d84611eef565b611ed4565b905082815260208101848484011115611f5e57611f5d611e6f565b5b611f69848285611f20565b509392505050565b600082601f830112611f8657611f85611e6a565b5b8135611f96848260208601611f2f565b91505092915050565b60008060008060808587031215611fb957611fb8611ab2565b5b6000611fc787828801611cff565b9450506020611fd887828801611cff565b9350506040611fe987828801611c4a565b925050606085013567ffffffffffffffff81111561200a57612009611ab7565b5b61201687828801611f71565b91505092959194509250565b600067ffffffffffffffff82111561203d5761203c611e74565b5b61204682611bbd565b9050602081019050919050565b600061206661206184612022565b611ed4565b90508281526020810184848401111561208257612081611e6f565b5b61208d848285611f20565b509392505050565b600082601f8301126120aa576120a9611e6a565b5b81356120ba848260208601612053565b91505092915050565b600080604083850312156120da576120d9611ab2565b5b60006120e885828601611cff565b925050602083013567ffffffffffffffff81111561210957612108611ab7565b5b61211585828601612095565b9150509250929050565b6000806040838503121561213657612135611ab2565b5b600061214485828601611cff565b925050602061215585828601611cff565b9150509250929050565b7f4e487b7100000000000000000000000000000000000000000000000000000000600052602260045260246000fd5b600060028204905060018216806121a657607f821691505b6020821081036121b9576121b861215f565b5b50919050565b60006060820190506121d46000830186611cbe565b6121e16020830185611dd4565b6121ee6040830184611cbe565b949350505050565b7f4e487b7100000000000000000000000000000000000000000000000000000000600052601160045260246000fd5b600061223082611c29565b91507fffffffffffffffffffffffffffffffffffffffffffffffffffffffffffffffff8203612262576122616121f6565b5b600182019050919050565b600081519050919050565b600082825260208201905092915050565b60006122948261226d565b61229e8185612278565b93506122ae818560208601611b93565b6122b781611bbd565b840191505092915050565b60006080820190506122d76000830187611cbe565b6122e46020830186611cbe565b6122f16040830185611dd4565b81810360608301526123038184612289565b905095945050505050565b60008151905061231d81611ae8565b92915050565b60006020828403121561233957612338611ab2565b5b60006123478482850161230e565b91505092915050565b600081905092915050565b600061236682611b77565b6123708185612350565b9350612380818560208601611b93565b80840191505092915050565b6000612398828561235b565b91506123a4828461235b565b91508190509392505050565b60008190508160005260206000209050919050565b60006020601f8301049050919050565b600082821b905092915050565b6000600883026124127fffffffffffffffffffffffffffffffffffffffffffffffffffffffffffffffff826123d5565b61241c86836123d5565b95508019841693508086168417925050509392505050565b6000819050919050565b600061245961245461244f84611c29565b612434565b611c29565b9050919050565b6000819050919050565b6124738361243e565b61248761247f82612460565b8484546123e2565b825550505050565b600090565b61249c61248f565b6124a781848461246a565b505050565b5b818110156124cb576124c0600082612494565b6001810190506124ad565b5050565b601f821115612510576124e1816123b0565b6124ea846123c5565b810160208510156124f9578190505b61250d612505856123c5565b8301826124ac565b50505b505050565b600082821c905092915050565b600061253360001984600802612515565b1980831691505092915050565b600061254c8383612522565b9150826002028217905092915050565b61256582611b77565b67ffffffffffffffff81111561257e5761257d611e74565b5b612588825461218e565b6125938282856124cf565b600060209050601f8311600181146125c657600084156125b4578287015190505b6125be8582612540565b865550612626565b601f1984166125d4866123b0565b60005b828110156125fc578489015182556001820191506020850194506020810190506125d7565b868310156126195784890151612615601f891682612522565b8355505b6001600288020188555050505b505050505050565b60006040820190506126436000830185611cbe565b6126506020830184611dd4565b9392505050565b7f4e487b7100000000000000000000000000000000000000000000000000000000600052601260045260246000fdfea2646970667358221220771121a77077f2c8aa0cba2a3b898864b5cb784108cf0f35950e936c4a660f4364736f6c63430008180033",
  "linkReferences": {},
  "deployedLinkReferences": {}
}